{
  "contractName": "NursingHomeDonates",
  "abi": [
    {
      "constant": false,
      "inputs": [
        {
          "name": "_newOwner",
          "type": "address"
        }
      ],
      "name": "setOwner",
      "outputs": [],
      "payable": false,
      "stateMutability": "nonpayable",
      "type": "function"
    },
    {
      "constant": true,
      "inputs": [
        {
          "name": "",
          "type": "uint256"
        }
      ],
      "name": "donates",
      "outputs": [
        {
          "name": "amount",
          "type": "uint256"
        },
        {
          "name": "nursingHome",
          "type": "string"
        },
        {
          "name": "donator",
          "type": "string"
        },
        {
          "name": "contacts",
          "type": "string"
        },
        {
          "name": "timestamp",
          "type": "uint256"
        }
      ],
      "payable": false,
      "stateMutability": "view",
      "type": "function"
    },
    {
      "constant": true,
      "inputs": [
        {
          "name": "_donator",
          "type": "string"
        }
      ],
      "name": "donatorDonationAmount",
      "outputs": [
        {
          "name": "",
          "type": "uint256"
        }
      ],
      "payable": false,
      "stateMutability": "view",
      "type": "function"
    },
    {
      "constant": false,
      "inputs": [
        {
          "name": "_nursingHome",
          "type": "string"
        },
        {
          "name": "_donator",
          "type": "string"
        },
        {
          "name": "_amount",
          "type": "uint256"
        },
        {
          "name": "_contacts",
          "type": "string"
        }
      ],
      "name": "donate",
      "outputs": [],
      "payable": false,
      "stateMutability": "nonpayable",
      "type": "function"
    },
    {
      "constant": true,
      "inputs": [],
      "name": "owner",
      "outputs": [
        {
          "name": "",
          "type": "address"
        }
      ],
      "payable": false,
      "stateMutability": "view",
      "type": "function"
    },
    {
      "constant": true,
      "inputs": [],
      "name": "donatesCount",
      "outputs": [
        {
          "name": "",
          "type": "uint256"
        }
      ],
      "payable": false,
      "stateMutability": "view",
      "type": "function"
    },
    {
      "constant": true,
      "inputs": [
        {
          "name": "_name",
          "type": "string"
        }
      ],
      "name": "nursingHomeDonationAmount",
      "outputs": [
        {
          "name": "",
          "type": "uint256"
        }
      ],
      "payable": false,
      "stateMutability": "view",
      "type": "function"
    },
    {
      "constant": true,
      "inputs": [],
      "name": "donatesTotal",
      "outputs": [
        {
          "name": "",
          "type": "uint256"
        }
      ],
      "payable": false,
      "stateMutability": "view",
      "type": "function"
    },
    {
      "anonymous": false,
      "inputs": [
        {
          "indexed": false,
          "name": "donator",
          "type": "string"
        },
        {
          "indexed": false,
          "name": "amount",
          "type": "uint256"
        },
        {
          "indexed": false,
          "name": "nursingHome",
          "type": "string"
        }
      ],
      "name": "Donated",
      "type": "event"
    }
  ],
  "bytecode": "0x6060604052336000806101000a81548173ffffffffffffffffffffffffffffffffffffffff021916908373ffffffffffffffffffffffffffffffffffffffff160217905550610bf3806100536000396000f30060606040526004361061008e576000357c0100000000000000000000000000000000000000000000000000000000900463ffffffff16806313af4035146100935780635db82085146100cc5780636c6bac77146102a557806375bfdfc5146103165780638da5cb5b1461040257806391e94ded14610457578063c1422e6914610480578063f8a735a7146104f1575b600080fd5b341561009e57600080fd5b6100ca600480803573ffffffffffffffffffffffffffffffffffffffff1690602001909190505061051a565b005b34156100d757600080fd5b6100ed60048080359060200190919050506105b8565b6040518086815260200180602001806020018060200185815260200184810384528881815460018160011615610100020316600290048152602001915080546001816001161561010002031660029004801561018a5780601f1061015f5761010080835404028352916020019161018a565b820191906000526020600020905b81548152906001019060200180831161016d57829003601f168201915b505084810383528781815460018160011615610100020316600290048152602001915080546001816001161561010002031660029004801561020d5780601f106101e25761010080835404028352916020019161020d565b820191906000526020600020905b8154815290600101906020018083116101f057829003601f168201915b50508481038252868181546001816001161561010002031660029004815260200191508054600181600116156101000203166002900480156102905780601f1061026557610100808354040283529160200191610290565b820191906000526020600020905b81548152906001019060200180831161027357829003601f168201915b50509850505050505050505060405180910390f35b34156102b057600080fd5b610300600480803590602001908201803590602001908080601f016020809104026020016040519081016040528093929190818152602001838380828437820191505050505050919050506105fa565b6040518082815260200191505060405180910390f35b341561032157600080fd5b610400600480803590602001908201803590602001908080601f0160208091040260200160405190810160405280939291908181526020018383808284378201915050505050509190803590602001908201803590602001908080601f0160208091040260200160405190810160405280939291908181526020018383808284378201915050505050509190803590602001909190803590602001908201803590602001908080601f01602080910402602001604051908101604052809392919081815260200183838082843782019150505050505091905050610627565b005b341561040d57600080fd5b6104156108f5565b604051808273ffffffffffffffffffffffffffffffffffffffff1673ffffffffffffffffffffffffffffffffffffffff16815260200191505060405180910390f35b341561046257600080fd5b61046a61091a565b6040518082815260200191505060405180910390f35b341561048b57600080fd5b6104db600480803590602001908201803590602001908080601f01602080910402602001604051908101604052809392919081815260200183838082843782019150505050505091905050610927565b6040518082815260200191505060405180910390f35b34156104fc57600080fd5b610504610954565b6040518082815260200191505060405180910390f35b6000809054906101000a900473ffffffffffffffffffffffffffffffffffffffff1673ffffffffffffffffffffffffffffffffffffffff163373ffffffffffffffffffffffffffffffffffffffff1614151561057557600080fd5b806000806101000a81548173ffffffffffffffffffffffffffffffffffffffff021916908373ffffffffffffffffffffffffffffffffffffffff16021790555050565b6001818154811015156105c757fe5b90600052602060002090600502016000915090508060000154908060010190806002019080600301908060040154905085565b600060036000610609846109ae565b60001916600019168152602001908152602001600020549050919050565b61062f6109df565b6000809054906101000a900473ffffffffffffffffffffffffffffffffffffffff1673ffffffffffffffffffffffffffffffffffffffff163373ffffffffffffffffffffffffffffffffffffffff1614151561068a57600080fd5b6000855111151561069a57600080fd5b600084511115156106aa57600080fd5b6000831115156106b957600080fd5b60a060405190810160405280848152602001868152602001858152602001838152602001428152509050600180548060010182816106f79190610a21565b91600052602060002090600502016000839091909150600082015181600001556020820151816001019080519060200190610733929190610a53565b506040820151816002019080519060200190610750929190610a53565b50606082015181600301908051906020019061076d929190610a53565b50608082015181600401555050508260036000610789876109ae565b600019166000191681526020019081526020016000206000828254019250508190555082600260006107ba886109ae565b60001916600019168152602001908152602001600020600082825401925050819055507ffb8b7aca0c12bd5cb63f7d509f2958a45a48022f88728b5f7a59abd5c14a19bc848487604051808060200184815260200180602001838103835286818151815260200191508051906020019080838360005b8381101561084b578082015181840152602081019050610830565b50505050905090810190601f1680156108785780820380516001836020036101000a031916815260200191505b50838103825284818151815260200191508051906020019080838360005b838110156108b1578082015181840152602081019050610896565b50505050905090810190601f1680156108de5780820380516001836020036101000a031916815260200191505b509550505050505060405180910390a15050505050565b6000809054906101000a900473ffffffffffffffffffffffffffffffffffffffff1681565b6000600180549050905090565b600060026000610936846109ae565b60001916600019168152602001908152602001600020549050919050565b6000806000809150600090505b6001805490508160ff1610156109a65760018160ff1681548110151561098357fe5b906000526020600020906005020160000154820191508080600101915050610961565b819250505090565b60006109b8610ad3565b8290506000815114156109d157600060010291506109d9565b602083015191505b50919050565b60a060405190810160405280600081526020016109fa610ae7565b8152602001610a07610ae7565b8152602001610a14610ae7565b8152602001600081525090565b815481835581811511610a4e57600502816005028360005260206000209182019101610a4d9190610afb565b5b505050565b828054600181600116156101000203166002900490600052602060002090601f016020900481019282601f10610a9457805160ff1916838001178555610ac2565b82800160010185558215610ac2579182015b82811115610ac1578251825591602001919060010190610aa6565b5b509050610acf9190610b5a565b5090565b602060405190810160405280600081525090565b602060405190810160405280600081525090565b610b5791905b80821115610b5357600080820160009055600182016000610b229190610b7f565b600282016000610b329190610b7f565b600382016000610b429190610b7f565b600482016000905550600501610b01565b5090565b90565b610b7c91905b80821115610b78576000816000905550600101610b60565b5090565b90565b50805460018160011615610100020316600290046000825580601f10610ba55750610bc4565b601f016020900490600052602060002090810190610bc39190610b5a565b5b505600a165627a7a723058201a4f3367c87a74a09a99e974db5abc88250d344a1dd18e13a5840bf4cf58d2370029",
  "source": "pragma solidity ^0.4.18;\n\nimport \"./Owned.sol\";\n\ncontract NursingHomeDonates is Owned {\n    struct Donate {\n        uint amount;\n        string nursingHome;\n        string donator;\n        string contacts;\n        uint timestamp;\n    }\n\n    Donate[] public donates;\n    mapping(bytes32 => uint) nursingHomes;\n    mapping(bytes32 => uint) donators;\n\n    event Donated(string donator, uint amount, string nursingHome);\n\n    function donate(string _nursingHome, string _donator, uint _amount, string _contacts) onlyOwner() {\n        require(bytes(_nursingHome).length > 0);\n        require(bytes(_donator).length > 0);\n        require(_amount > 0);\n\n        var d = Donate({\n            nursingHome: _nursingHome,\n            amount: _amount,\n            donator: _donator,\n            contacts: _contacts,\n            timestamp: now\n        });\n\n        donates.push(d);\n        donators[stringToBytes32(_donator)] += _amount;\n        nursingHomes[stringToBytes32(_nursingHome)] += _amount;\n\n        Donated(_donator, _amount, _nursingHome);\n    }\n\n    function donatesCount() constant returns (uint) {\n        return donates.length;\n    }\n\n    function donatesTotal() constant returns (uint) {\n        uint result = 0;\n        for (var i = 0;i < donates.length;i++) {\n            result += donates[i].amount;\n        }\n\n        return result;\n    }\n\n    function nursingHomeDonationAmount(string _name) constant returns(uint) {\n        return nursingHomes[stringToBytes32(_name)];\n    }\n\n    function donatorDonationAmount(string _donator) constant returns(uint) {\n        return donators[stringToBytes32(_donator)];\n    }\n\n    function stringToBytes32(string memory _source) private returns (bytes32 result) {\n        bytes memory tempEmptyStringTest = bytes(_source);\n        if (tempEmptyStringTest.length == 0) {\n            return 0x0;\n        }\n\n        assembly {\n            result := mload(add(_source, 32))\n        }\n    }\n}",
  "sourcePath": "/Users/smashin/projects/nursing-home-donates/contracts/NursingHomeDonates.sol",
  "compiler": {
    "name": "solc",
    "version": "0.4.18+commit.9cf6e910.Emscripten.clang"
  },
  "schemaVersion": "1.0.1",
  "updatedAt": "2017-12-01T02:22:24.341Z"
}